{
  "_format": "hh-sol-artifact-1",
  "contractName": "NftOption",
  "sourceName": "contracts/NftOption.sol",
  "abi": [
    {
      "inputs": [],
      "stateMutability": "nonpayable",
      "type": "constructor"
    },
    {
      "anonymous": false,
      "inputs": [
        {
          "indexed": true,
          "internalType": "address",
          "name": "owner",
          "type": "address"
        },
        {
          "indexed": true,
          "internalType": "address",
          "name": "approved",
          "type": "address"
        },
        {
          "indexed": true,
          "internalType": "uint256",
          "name": "tokenId",
          "type": "uint256"
        }
      ],
      "name": "Approval",
      "type": "event"
    },
    {
      "anonymous": false,
      "inputs": [
        {
          "indexed": true,
          "internalType": "address",
          "name": "owner",
          "type": "address"
        },
        {
          "indexed": true,
          "internalType": "address",
          "name": "operator",
          "type": "address"
        },
        {
          "indexed": false,
          "internalType": "bool",
          "name": "approved",
          "type": "bool"
        }
      ],
      "name": "ApprovalForAll",
      "type": "event"
    },
    {
      "anonymous": false,
      "inputs": [
        {
          "indexed": true,
          "internalType": "address",
          "name": "previousOwner",
          "type": "address"
        },
        {
          "indexed": true,
          "internalType": "address",
          "name": "newOwner",
          "type": "address"
        }
      ],
      "name": "OwnershipTransferred",
      "type": "event"
    },
    {
      "anonymous": false,
      "inputs": [
        {
          "indexed": true,
          "internalType": "address",
          "name": "from",
          "type": "address"
        },
        {
          "indexed": true,
          "internalType": "address",
          "name": "to",
          "type": "address"
        },
        {
          "indexed": true,
          "internalType": "uint256",
          "name": "tokenId",
          "type": "uint256"
        }
      ],
      "name": "Transfer",
      "type": "event"
    },
    {
      "inputs": [
        {
          "internalType": "address",
          "name": "to",
          "type": "address"
        },
        {
          "internalType": "uint256",
          "name": "tokenId",
          "type": "uint256"
        }
      ],
      "name": "approve",
      "outputs": [],
      "stateMutability": "nonpayable",
      "type": "function"
    },
    {
      "inputs": [
        {
          "internalType": "address",
          "name": "owner",
          "type": "address"
        }
      ],
      "name": "balanceOf",
      "outputs": [
        {
          "internalType": "uint256",
          "name": "",
          "type": "uint256"
        }
      ],
      "stateMutability": "view",
      "type": "function"
    },
    {
      "inputs": [
        {
          "components": [
            {
              "internalType": "uint256",
              "name": "tokenId",
              "type": "uint256"
            },
            {
              "internalType": "address",
              "name": "owner",
              "type": "address"
            },
            {
              "internalType": "string",
              "name": "collection",
              "type": "string"
            },
            {
              "internalType": "string",
              "name": "urlNftOption",
              "type": "string"
            },
            {
              "internalType": "string",
              "name": "urlNftImage",
              "type": "string"
            },
            {
              "internalType": "uint256",
              "name": "strikePrice",
              "type": "uint256"
            },
            {
              "internalType": "uint256",
              "name": "amount",
              "type": "uint256"
            },
            {
              "internalType": "uint256",
              "name": "expirationDate",
              "type": "uint256"
            },
            {
              "internalType": "address",
              "name": "purcharser",
              "type": "address"
            }
          ],
          "internalType": "struct NftOption.NftOption",
          "name": "_option",
          "type": "tuple"
        }
      ],
      "name": "createNftOption",
      "outputs": [],
      "stateMutability": "payable",
      "type": "function"
    },
    {
      "inputs": [
        {
          "internalType": "uint256",
          "name": "_tokenId",
          "type": "uint256"
        }
      ],
      "name": "executeNftOption",
      "outputs": [],
      "stateMutability": "payable",
      "type": "function"
    },
    {
      "inputs": [
        {
          "internalType": "uint256",
          "name": "tokenId",
          "type": "uint256"
        }
      ],
      "name": "getApproved",
      "outputs": [
        {
          "internalType": "address",
          "name": "",
          "type": "address"
        }
      ],
      "stateMutability": "view",
      "type": "function"
    },
    {
      "inputs": [],
      "name": "getNftOptions",
      "outputs": [
        {
          "components": [
            {
              "internalType": "uint256",
              "name": "tokenId",
              "type": "uint256"
            },
            {
              "internalType": "address",
              "name": "owner",
              "type": "address"
            },
            {
              "internalType": "string",
              "name": "collection",
              "type": "string"
            },
            {
              "internalType": "string",
              "name": "urlNftOption",
              "type": "string"
            },
            {
              "internalType": "string",
              "name": "urlNftImage",
              "type": "string"
            },
            {
              "internalType": "uint256",
              "name": "strikePrice",
              "type": "uint256"
            },
            {
              "internalType": "uint256",
              "name": "amount",
              "type": "uint256"
            },
            {
              "internalType": "uint256",
              "name": "expirationDate",
              "type": "uint256"
            },
            {
              "internalType": "address",
              "name": "purcharser",
              "type": "address"
            }
          ],
          "internalType": "struct NftOption.NftOption[]",
          "name": "",
          "type": "tuple[]"
        }
      ],
      "stateMutability": "view",
      "type": "function"
    },
    {
      "inputs": [
        {
          "internalType": "address",
          "name": "owner",
          "type": "address"
        },
        {
          "internalType": "address",
          "name": "operator",
          "type": "address"
        }
      ],
      "name": "isApprovedForAll",
      "outputs": [
        {
          "internalType": "bool",
          "name": "",
          "type": "bool"
        }
      ],
      "stateMutability": "view",
      "type": "function"
    },
    {
      "inputs": [],
      "name": "name",
      "outputs": [
        {
          "internalType": "string",
          "name": "",
          "type": "string"
        }
      ],
      "stateMutability": "view",
      "type": "function"
    },
    {
      "inputs": [],
      "name": "owner",
      "outputs": [
        {
          "internalType": "address",
          "name": "",
          "type": "address"
        }
      ],
      "stateMutability": "view",
      "type": "function"
    },
    {
      "inputs": [
        {
          "internalType": "uint256",
          "name": "tokenId",
          "type": "uint256"
        }
      ],
      "name": "ownerOf",
      "outputs": [
        {
          "internalType": "address",
          "name": "",
          "type": "address"
        }
      ],
      "stateMutability": "view",
      "type": "function"
    },
    {
      "inputs": [
        {
          "internalType": "uint256",
          "name": "_tokenId",
          "type": "uint256"
        }
      ],
      "name": "purchaseNftOption",
      "outputs": [],
      "stateMutability": "nonpayable",
      "type": "function"
    },
    {
      "inputs": [],
      "name": "renounceOwnership",
      "outputs": [],
      "stateMutability": "nonpayable",
      "type": "function"
    },
    {
      "inputs": [
        {
          "internalType": "address",
          "name": "from",
          "type": "address"
        },
        {
          "internalType": "address",
          "name": "to",
          "type": "address"
        },
        {
          "internalType": "uint256",
          "name": "tokenId",
          "type": "uint256"
        }
      ],
      "name": "safeTransferFrom",
      "outputs": [],
      "stateMutability": "nonpayable",
      "type": "function"
    },
    {
      "inputs": [
        {
          "internalType": "address",
          "name": "from",
          "type": "address"
        },
        {
          "internalType": "address",
          "name": "to",
          "type": "address"
        },
        {
          "internalType": "uint256",
          "name": "tokenId",
          "type": "uint256"
        },
        {
          "internalType": "bytes",
          "name": "_data",
          "type": "bytes"
        }
      ],
      "name": "safeTransferFrom",
      "outputs": [],
      "stateMutability": "nonpayable",
      "type": "function"
    },
    {
      "inputs": [
        {
          "internalType": "address",
          "name": "operator",
          "type": "address"
        },
        {
          "internalType": "bool",
          "name": "approved",
          "type": "bool"
        }
      ],
      "name": "setApprovalForAll",
      "outputs": [],
      "stateMutability": "nonpayable",
      "type": "function"
    },
    {
      "inputs": [
        {
          "internalType": "bytes4",
          "name": "interfaceId",
          "type": "bytes4"
        }
      ],
      "name": "supportsInterface",
      "outputs": [
        {
          "internalType": "bool",
          "name": "",
          "type": "bool"
        }
      ],
      "stateMutability": "view",
      "type": "function"
    },
    {
      "inputs": [],
      "name": "symbol",
      "outputs": [
        {
          "internalType": "string",
          "name": "",
          "type": "string"
        }
      ],
      "stateMutability": "view",
      "type": "function"
    },
    {
      "inputs": [
        {
          "internalType": "uint256",
          "name": "index",
          "type": "uint256"
        }
      ],
      "name": "tokenByIndex",
      "outputs": [
        {
          "internalType": "uint256",
          "name": "",
          "type": "uint256"
        }
      ],
      "stateMutability": "view",
      "type": "function"
    },
    {
      "inputs": [
        {
          "internalType": "address",
          "name": "owner",
          "type": "address"
        },
        {
          "internalType": "uint256",
          "name": "index",
          "type": "uint256"
        }
      ],
      "name": "tokenOfOwnerByIndex",
      "outputs": [
        {
          "internalType": "uint256",
          "name": "",
          "type": "uint256"
        }
      ],
      "stateMutability": "view",
      "type": "function"
    },
    {
      "inputs": [
        {
          "internalType": "uint256",
          "name": "tokenId",
          "type": "uint256"
        }
      ],
      "name": "tokenURI",
      "outputs": [
        {
          "internalType": "string",
          "name": "",
          "type": "string"
        }
      ],
      "stateMutability": "view",
      "type": "function"
    },
    {
      "inputs": [],
      "name": "totalSupply",
      "outputs": [
        {
          "internalType": "uint256",
          "name": "",
          "type": "uint256"
        }
      ],
      "stateMutability": "view",
      "type": "function"
    },
    {
      "inputs": [
        {
          "internalType": "address",
          "name": "from",
          "type": "address"
        },
        {
          "internalType": "address",
          "name": "to",
          "type": "address"
        },
        {
          "internalType": "uint256",
          "name": "tokenId",
          "type": "uint256"
        }
      ],
      "name": "transferFrom",
      "outputs": [],
      "stateMutability": "nonpayable",
      "type": "function"
    },
    {
      "inputs": [
        {
          "internalType": "address",
          "name": "newOwner",
          "type": "address"
        }
      ],
      "name": "transferOwnership",
      "outputs": [],
      "stateMutability": "nonpayable",
      "type": "function"
    }
  ],
  "bytecode": "0x60806040523480156200001157600080fd5b506040518060400160405280600f81526020017f4f6e65376f6b656e204f7074696f6e00000000000000000000000000000000008152506040518060400160405280600881526020017f4f4e45374f4b454e00000000000000000000000000000000000000000000000081525081600090805190602001906200009692919062001c95565b508060019080519060200190620000af92919062001c95565b505050620000d2620000c66200082160201b60201c565b6200082960201b60201c565b620000e9600b620008ef60201b620017c81760201c565b620001e0604051806101200160405280600081526020013373ffffffffffffffffffffffffffffffffffffffff1681526020016040518060400160405280600481526020017f746f746f00000000000000000000000000000000000000000000000000000000815250815260200160405180608001604052806058815260200162006cbb6058913981526020016040518060a00160405280606a815260200162006c51606a91398152602001603281526020016001815260200162278d0042620001b4919062001dc4565b8152602001600073ffffffffffffffffffffffffffffffffffffffff168152506200090560201b60201c565b620002d7604051806101200160405280600081526020013373ffffffffffffffffffffffffffffffffffffffff1681526020016040518060400160405280600481526020017f746f746f00000000000000000000000000000000000000000000000000000000815250815260200160405180608001604052806058815260200162006cbb6058913981526020016040518060a00160405280606a815260200162006c51606a91398152602001603281526020016001815260200162278d0042620002ab919062001dc4565b8152602001600073ffffffffffffffffffffffffffffffffffffffff168152506200090560201b60201c565b620003e1604051806101200160405280600081526020013373ffffffffffffffffffffffffffffffffffffffff1681526020016040518060400160405280600481526020017f746f746f00000000000000000000000000000000000000000000000000000000815250815260200160405180608001604052806058815260200162006cbb6058913981526020016040518060a00160405280606a815260200162006c51606a91398152602001603281526020016001815260200162278d0042620003a2919062001dc4565b8152602001738626f6940e2eb28930efb4cef49b2d1f2c9c119973ffffffffffffffffffffffffffffffffffffffff168152506200090560201b60201c565b620004eb604051806101200160405280600081526020013373ffffffffffffffffffffffffffffffffffffffff1681526020016040518060400160405280600481526020017f746f746f00000000000000000000000000000000000000000000000000000000815250815260200160405180608001604052806058815260200162006cbb6058913981526020016040518060a00160405280606a815260200162006c51606a91398152602001603281526020016001815260200162278d0042620004ac919062001dc4565b8152602001738626f6940e2eb28930efb4cef49b2d1f2c9c119973ffffffffffffffffffffffffffffffffffffffff168152506200090560201b60201c565b620005f5604051806101200160405280600081526020013373ffffffffffffffffffffffffffffffffffffffff1681526020016040518060400160405280600481526020017f746f746f00000000000000000000000000000000000000000000000000000000815250815260200160405180608001604052806058815260200162006cbb6058913981526020016040518060a00160405280606a815260200162006c51606a91398152602001603281526020016001815260200162278d0042620005b6919062001dc4565b8152602001738626f6940e2eb28930efb4cef49b2d1f2c9c119973ffffffffffffffffffffffffffffffffffffffff168152506200090560201b60201c565b620006ff604051806101200160405280600081526020013373ffffffffffffffffffffffffffffffffffffffff1681526020016040518060400160405280600481526020017f746f746f00000000000000000000000000000000000000000000000000000000815250815260200160405180608001604052806058815260200162006cbb6058913981526020016040518060a00160405280606a815260200162006c51606a91398152602001603281526020016001815260200162278d0042620006c0919062001dc4565b8152602001738626f6940e2eb28930efb4cef49b2d1f2c9c119973ffffffffffffffffffffffffffffffffffffffff168152506200090560201b60201c565b62000809604051806101200160405280600081526020013373ffffffffffffffffffffffffffffffffffffffff1681526020016040518060400160405280600481526020017f746f746f00000000000000000000000000000000000000000000000000000000815250815260200160405180608001604052806058815260200162006cbb6058913981526020016040518060a00160405280606a815260200162006c51606a91398152602001603281526020016001815260200162278d0042620007ca919062001dc4565b8152602001738626f6940e2eb28930efb4cef49b2d1f2c9c119973ffffffffffffffffffffffffffffffffffffffff168152506200090560201b60201c565b6200081b600462000ae060201b60201c565b6200261e565b600033905090565b6000600a60009054906101000a900473ffffffffffffffffffffffffffffffffffffffff16905081600a60006101000a81548173ffffffffffffffffffffffffffffffffffffffff021916908373ffffffffffffffffffffffffffffffffffffffff1602179055508173ffffffffffffffffffffffffffffffffffffffff168173ffffffffffffffffffffffffffffffffffffffff167f8be0079c531659141344cd1fd0a4f28419497f9722a3daafe3b4186f6b6457e060405160405180910390a35050565b6001816000016000828254019250508190555050565b6200091c600b62000d2160201b620017de1760201c565b81600001818152505033816020019073ffffffffffffffffffffffffffffffffffffffff16908173ffffffffffffffffffffffffffffffffffffffff168152505080600c600062000979600b62000d2160201b620017de1760201c565b81526020019081526020016000206000820151816000015560208201518160010160006101000a81548173ffffffffffffffffffffffffffffffffffffffff021916908373ffffffffffffffffffffffffffffffffffffffff1602179055506040820151816002019080519060200190620009f692919062001c95565b50606082015181600301908051906020019062000a1592919062001c95565b50608082015181600401908051906020019062000a3492919062001c95565b5060a0820151816005015560c0820151816006015560e082015181600701556101008201518160080160006101000a81548173ffffffffffffffffffffffffffffffffffffffff021916908373ffffffffffffffffffffffffffffffffffffffff16021790555090505062000ac63362000aba600b62000d2160201b620017de1760201c565b62000d2f60201b60201c565b62000add600b620008ef60201b620017c81760201c565b50565b3373ffffffffffffffffffffffffffffffffffffffff1662000b088262000d5560201b60201c565b73ffffffffffffffffffffffffffffffffffffffff161462000b61576040517f08c379a000000000000000000000000000000000000000000000000000000000815260040162000b589062001ea8565b60405180910390fd5b600073ffffffffffffffffffffffffffffffffffffffff16600c600083815260200190815260200160002060080160009054906101000a900473ffffffffffffffffffffffffffffffffffffffff1673ffffffffffffffffffffffffffffffffffffffff16141562000c0a576040517f08c379a000000000000000000000000000000000000000000000000000000000815260040162000c019062001f40565b60405180910390fd5b62000c5333600c600084815260200190815260200160002060080160009054906101000a900473ffffffffffffffffffffffffffffffffffffffff168362000e0a60201b60201c565b62000c6481620010a060201b60201c565b600c60008281526020019081526020016000206000808201600090556001820160006101000a81549073ffffffffffffffffffffffffffffffffffffffff021916905560028201600062000cb9919062001d26565b60038201600062000ccb919062001d26565b60048201600062000cdd919062001d26565b6005820160009055600682016000905560078201600090556008820160006101000a81549073ffffffffffffffffffffffffffffffffffffffff0219169055505050565b600081600001549050919050565b62000d51828260405180602001604052806000815250620011e460201b60201c565b5050565b6000806002600084815260200190815260200160002060009054906101000a900473ffffffffffffffffffffffffffffffffffffffff169050600073ffffffffffffffffffffffffffffffffffffffff168173ffffffffffffffffffffffffffffffffffffffff16141562000e01576040517f08c379a000000000000000000000000000000000000000000000000000000000815260040162000df89062001fd8565b60405180910390fd5b80915050919050565b8273ffffffffffffffffffffffffffffffffffffffff1662000e378262000d5560201b62000ccb1760201c565b73ffffffffffffffffffffffffffffffffffffffff161462000e90576040517f08c379a000000000000000000000000000000000000000000000000000000000815260040162000e879062002070565b60405180910390fd5b600073ffffffffffffffffffffffffffffffffffffffff168273ffffffffffffffffffffffffffffffffffffffff16141562000f03576040517f08c379a000000000000000000000000000000000000000000000000000000000815260040162000efa9062002108565b60405180910390fd5b62000f168383836200125260201b60201c565b62000f296000826200139960201b60201c565b6001600360008573ffffffffffffffffffffffffffffffffffffffff1673ffffffffffffffffffffffffffffffffffffffff168152602001908152602001600020600082825462000f7b91906200212a565b925050819055506001600360008473ffffffffffffffffffffffffffffffffffffffff1673ffffffffffffffffffffffffffffffffffffffff168152602001908152602001600020600082825462000fd4919062001dc4565b92505081905550816002600083815260200190815260200160002060006101000a81548173ffffffffffffffffffffffffffffffffffffffff021916908373ffffffffffffffffffffffffffffffffffffffff160217905550808273ffffffffffffffffffffffffffffffffffffffff168473ffffffffffffffffffffffffffffffffffffffff167fddf252ad1be2c89b69c2b068fc378daa952ba7f163c4a11628f55a4df523b3ef60405160405180910390a46200109b8383836200145f60201b60201c565b505050565b6000620010b88262000d5560201b62000ccb1760201c565b9050620010ce816000846200125260201b60201c565b620010e16000836200139960201b60201c565b6001600360008373ffffffffffffffffffffffffffffffffffffffff1673ffffffffffffffffffffffffffffffffffffffff16815260200190815260200160002060008282546200113391906200212a565b925050819055506002600083815260200190815260200160002060006101000a81549073ffffffffffffffffffffffffffffffffffffffff021916905581600073ffffffffffffffffffffffffffffffffffffffff168273ffffffffffffffffffffffffffffffffffffffff167fddf252ad1be2c89b69c2b068fc378daa952ba7f163c4a11628f55a4df523b3ef60405160405180910390a4620011e0816000846200145f60201b60201c565b5050565b620011f683836200146460201b60201c565b6200120b60008484846200165e60201b60201c565b6200124d576040517f08c379a00000000000000000000000000000000000000000000000000000000081526004016200124490620021db565b60405180910390fd5b505050565b6200126a8383836200181860201b620017ec1760201c565b600073ffffffffffffffffffffffffffffffffffffffff168373ffffffffffffffffffffffffffffffffffffffff161415620012b757620012b1816200181d60201b60201c565b620012ff565b8173ffffffffffffffffffffffffffffffffffffffff168373ffffffffffffffffffffffffffffffffffffffff1614620012fe57620012fd83826200186660201b60201c565b5b5b600073ffffffffffffffffffffffffffffffffffffffff168273ffffffffffffffffffffffffffffffffffffffff1614156200134c576200134681620019e360201b60201c565b62001394565b8273ffffffffffffffffffffffffffffffffffffffff168273ffffffffffffffffffffffffffffffffffffffff1614620013935762001392828262001abf60201b60201c565b5b5b505050565b816004600083815260200190815260200160002060006101000a81548173ffffffffffffffffffffffffffffffffffffffff021916908373ffffffffffffffffffffffffffffffffffffffff160217905550808273ffffffffffffffffffffffffffffffffffffffff16620014198362000d5560201b62000ccb1760201c565b73ffffffffffffffffffffffffffffffffffffffff167f8c5be1e5ebec7d5bd14f71427d1e84f3dd0314c0f7b2291e5b200ac8c7c3b92560405160405180910390a45050565b505050565b600073ffffffffffffffffffffffffffffffffffffffff168273ffffffffffffffffffffffffffffffffffffffff161415620014d7576040517f08c379a0000000000000000000000000000000000000000000000000000000008152600401620014ce906200224d565b60405180910390fd5b620014e88162001b4b60201b60201c565b156200152b576040517f08c379a00000000000000000000000000000000000000000000000000000000081526004016200152290620022bf565b60405180910390fd5b6200153f600083836200125260201b60201c565b6001600360008473ffffffffffffffffffffffffffffffffffffffff1673ffffffffffffffffffffffffffffffffffffffff168152602001908152602001600020600082825462001591919062001dc4565b92505081905550816002600083815260200190815260200160002060006101000a81548173ffffffffffffffffffffffffffffffffffffffff021916908373ffffffffffffffffffffffffffffffffffffffff160217905550808273ffffffffffffffffffffffffffffffffffffffff16600073ffffffffffffffffffffffffffffffffffffffff167fddf252ad1be2c89b69c2b068fc378daa952ba7f163c4a11628f55a4df523b3ef60405160405180910390a46200165a600083836200145f60201b60201c565b5050565b60006200168c8473ffffffffffffffffffffffffffffffffffffffff1662001bb760201b620017f11760201c565b156200180b578373ffffffffffffffffffffffffffffffffffffffff1663150b7a02620016be6200082160201b60201c565b8786866040518563ffffffff1660e01b8152600401620016e29493929190620023db565b602060405180830381600087803b158015620016fd57600080fd5b505af19250505080156200173157506040513d601f19601f820116820180604052508101906200172e919062002491565b60015b620017ba573d806000811462001764576040519150601f19603f3d011682016040523d82523d6000602084013e62001769565b606091505b50600081511415620017b2576040517f08c379a0000000000000000000000000000000000000000000000000000000008152600401620017a990620021db565b60405180910390fd5b805181602001fd5b63150b7a0260e01b7bffffffffffffffffffffffffffffffffffffffffffffffffffffffff1916817bffffffffffffffffffffffffffffffffffffffffffffffffffffffff19161491505062001810565b600190505b949350505050565b505050565b6008805490506009600083815260200190815260200160002081905550600881908060018154018082558091505060019003906000526020600020016000909190919091505550565b60006001620018808462001bda60201b62000f9a1760201c565b6200188c91906200212a565b905060006007600084815260200190815260200160002054905081811462001972576000600660008673ffffffffffffffffffffffffffffffffffffffff1673ffffffffffffffffffffffffffffffffffffffff168152602001908152602001600020600084815260200190815260200160002054905080600660008773ffffffffffffffffffffffffffffffffffffffff1673ffffffffffffffffffffffffffffffffffffffff168152602001908152602001600020600084815260200190815260200160002081905550816007600083815260200190815260200160002081905550505b6007600084815260200190815260200160002060009055600660008573ffffffffffffffffffffffffffffffffffffffff1673ffffffffffffffffffffffffffffffffffffffff16815260200190815260200160002060008381526020019081526020016000206000905550505050565b60006001600880549050620019f991906200212a565b905060006009600084815260200190815260200160002054905060006008838154811062001a2c5762001a2b620024c3565b5b90600052602060002001549050806008838154811062001a515762001a50620024c3565b5b90600052602060002001819055508160096000838152602001908152602001600020819055506009600085815260200190815260200160002060009055600880548062001aa35762001aa2620024f2565b5b6001900381819060005260206000200160009055905550505050565b600062001ad78362001bda60201b62000f9a1760201c565b905081600660008573ffffffffffffffffffffffffffffffffffffffff1673ffffffffffffffffffffffffffffffffffffffff168152602001908152602001600020600083815260200190815260200160002081905550806007600084815260200190815260200160002081905550505050565b60008073ffffffffffffffffffffffffffffffffffffffff166002600084815260200190815260200160002060009054906101000a900473ffffffffffffffffffffffffffffffffffffffff1673ffffffffffffffffffffffffffffffffffffffff1614159050919050565b6000808273ffffffffffffffffffffffffffffffffffffffff163b119050919050565b60008073ffffffffffffffffffffffffffffffffffffffff168273ffffffffffffffffffffffffffffffffffffffff16141562001c4e576040517f08c379a000000000000000000000000000000000000000000000000000000000815260040162001c459062002597565b60405180910390fd5b600360008373ffffffffffffffffffffffffffffffffffffffff1673ffffffffffffffffffffffffffffffffffffffff168152602001908152602001600020549050919050565b82805462001ca390620025e8565b90600052602060002090601f01602090048101928262001cc7576000855562001d13565b82601f1062001ce257805160ff191683800117855562001d13565b8280016001018555821562001d13579182015b8281111562001d1257825182559160200191906001019062001cf5565b5b50905062001d22919062001d6c565b5090565b50805462001d3490620025e8565b6000825580601f1062001d48575062001d69565b601f01602090049060005260206000209081019062001d68919062001d6c565b5b50565b5b8082111562001d8757600081600090555060010162001d6d565b5090565b6000819050919050565b7f4e487b7100000000000000000000000000000000000000000000000000000000600052601160045260246000fd5b600062001dd18262001d8b565b915062001dde8362001d8b565b9250827fffffffffffffffffffffffffffffffffffffffffffffffffffffffffffffffff0382111562001e165762001e1562001d95565b5b828201905092915050565b600082825260208201905092915050565b7f596f752063616e6e6f7420657865637574652074686973206f7074696f6e2c2060008201527f796f7520617265206e6f7420746865206f776e65722e00000000000000000000602082015250565b600062001e9060368362001e21565b915062001e9d8262001e32565b604082019050919050565b6000602082019050818103600083015262001ec38162001e81565b9050919050565b7f596f752063616e6e6f7420657865637574652074686973206f7074696f6e2c2060008201527f6e6f207075726368617365722e00000000000000000000000000000000000000602082015250565b600062001f28602d8362001e21565b915062001f358262001eca565b604082019050919050565b6000602082019050818103600083015262001f5b8162001f19565b9050919050565b7f4552433732313a206f776e657220717565727920666f72206e6f6e657869737460008201527f656e7420746f6b656e0000000000000000000000000000000000000000000000602082015250565b600062001fc060298362001e21565b915062001fcd8262001f62565b604082019050919050565b6000602082019050818103600083015262001ff38162001fb1565b9050919050565b7f4552433732313a207472616e736665722066726f6d20696e636f72726563742060008201527f6f776e6572000000000000000000000000000000000000000000000000000000602082015250565b60006200205860258362001e21565b9150620020658262001ffa565b604082019050919050565b600060208201905081810360008301526200208b8162002049565b9050919050565b7f4552433732313a207472616e7366657220746f20746865207a65726f2061646460008201527f7265737300000000000000000000000000000000000000000000000000000000602082015250565b6000620020f060248362001e21565b9150620020fd8262002092565b604082019050919050565b600060208201905081810360008301526200212381620020e1565b9050919050565b6000620021378262001d8b565b9150620021448362001d8b565b9250828210156200215a576200215962001d95565b5b828203905092915050565b7f4552433732313a207472616e7366657220746f206e6f6e20455243373231526560008201527f63656976657220696d706c656d656e7465720000000000000000000000000000602082015250565b6000620021c360328362001e21565b9150620021d08262002165565b604082019050919050565b60006020820190508181036000830152620021f681620021b4565b9050919050565b7f4552433732313a206d696e7420746f20746865207a65726f2061646472657373600082015250565b60006200223560208362001e21565b91506200224282620021fd565b602082019050919050565b60006020820190508181036000830152620022688162002226565b9050919050565b7f4552433732313a20746f6b656e20616c7265616479206d696e74656400000000600082015250565b6000620022a7601c8362001e21565b9150620022b4826200226f565b602082019050919050565b60006020820190508181036000830152620022da8162002298565b9050919050565b600073ffffffffffffffffffffffffffffffffffffffff82169050919050565b60006200230e82620022e1565b9050919050565b620023208162002301565b82525050565b620023318162001d8b565b82525050565b600081519050919050565b600082825260208201905092915050565b60005b838110156200237357808201518184015260208101905062002356565b8381111562002383576000848401525b50505050565b6000601f19601f8301169050919050565b6000620023a78262002337565b620023b3818562002342565b9350620023c581856020860162002353565b620023d08162002389565b840191505092915050565b6000608082019050620023f2600083018762002315565b62002401602083018662002315565b62002410604083018562002326565b81810360608301526200242481846200239a565b905095945050505050565b600080fd5b60007fffffffff0000000000000000000000000000000000000000000000000000000082169050919050565b6200246b8162002434565b81146200247757600080fd5b50565b6000815190506200248b8162002460565b92915050565b600060208284031215620024aa57620024a96200242f565b5b6000620024ba848285016200247a565b91505092915050565b7f4e487b7100000000000000000000000000000000000000000000000000000000600052603260045260246000fd5b7f4e487b7100000000000000000000000000000000000000000000000000000000600052603160045260246000fd5b7f4552433732313a2062616c616e636520717565727920666f7220746865207a6560008201527f726f206164647265737300000000000000000000000000000000000000000000602082015250565b60006200257f602a8362001e21565b91506200258c8262002521565b604082019050919050565b60006020820190508181036000830152620025b28162002570565b9050919050565b7f4e487b7100000000000000000000000000000000000000000000000000000000600052602260045260246000fd5b600060028204905060018216806200260157607f821691505b60208210811415620026185762002617620025b9565b5b50919050565b614623806200262e6000396000f3fe6080604052600436106101405760003560e01c80636352211e116100b657806395d89b411161006f57806395d89b4114610452578063a22cb4651461047d578063b88d4fde146104a6578063c87b56dd146104cf578063e985e9c51461050c578063f2fde38b1461054957610140565b80636352211e1461034f57806363cefe561461038c57806370a08231146103a8578063715018a6146103e55780638a6e7d30146103fc5780638da5cb5b1461042757610140565b806323b872dd1161010857806323b872dd1461023e5780632f745c591461026757806342589d22146102a457806342842e0e146102c05780634f6ccce7146102e95780635e445de31461032657610140565b806301ffc9a71461014557806306fdde0314610182578063081812fc146101ad578063095ea7b3146101ea57806318160ddd14610213575b600080fd5b34801561015157600080fd5b5061016c60048036038101906101679190612cc6565b610572565b6040516101799190612d0e565b60405180910390f35b34801561018e57600080fd5b506101976105ec565b6040516101a49190612dc2565b60405180910390f35b3480156101b957600080fd5b506101d460048036038101906101cf9190612e1a565b61067e565b6040516101e19190612e88565b60405180910390f35b3480156101f657600080fd5b50610211600480360381019061020c9190612ecf565b610703565b005b34801561021f57600080fd5b5061022861081b565b6040516102359190612f1e565b60405180910390f35b34801561024a57600080fd5b5061026560048036038101906102609190612f39565b610828565b005b34801561027357600080fd5b5061028e60048036038101906102899190612ecf565b610888565b60405161029b9190612f1e565b60405180910390f35b6102be60048036038101906102b991906131ff565b61092d565b005b3480156102cc57600080fd5b506102e760048036038101906102e29190612f39565b610ac6565b005b3480156102f557600080fd5b50610310600480360381019061030b9190612e1a565b610ae6565b60405161031d9190612f1e565b60405180910390f35b34801561033257600080fd5b5061034d60048036038101906103489190612e1a565b610b57565b005b34801561035b57600080fd5b5061037660048036038101906103719190612e1a565b610ccb565b6040516103839190612e88565b60405180910390f35b6103a660048036038101906103a19190612e1a565b610d7d565b005b3480156103b457600080fd5b506103cf60048036038101906103ca9190613248565b610f9a565b6040516103dc9190612f1e565b60405180910390f35b3480156103f157600080fd5b506103fa611052565b005b34801561040857600080fd5b506104116110da565b60405161041e9190613472565b60405180910390f35b34801561043357600080fd5b5061043c611461565b6040516104499190612e88565b60405180910390f35b34801561045e57600080fd5b5061046761148b565b6040516104749190612dc2565b60405180910390f35b34801561048957600080fd5b506104a4600480360381019061049f91906134c0565b61151d565b005b3480156104b257600080fd5b506104cd60048036038101906104c891906135a1565b611533565b005b3480156104db57600080fd5b506104f660048036038101906104f19190612e1a565b611595565b6040516105039190612dc2565b60405180910390f35b34801561051857600080fd5b50610533600480360381019061052e9190613624565b61163c565b6040516105409190612d0e565b60405180910390f35b34801561055557600080fd5b50610570600480360381019061056b9190613248565b6116d0565b005b60007f780e9d63000000000000000000000000000000000000000000000000000000007bffffffffffffffffffffffffffffffffffffffffffffffffffffffff1916827bffffffffffffffffffffffffffffffffffffffffffffffffffffffff191614806105e557506105e482611814565b5b9050919050565b6060600080546105fb90613693565b80601f016020809104026020016040519081016040528092919081815260200182805461062790613693565b80156106745780601f1061064957610100808354040283529160200191610674565b820191906000526020600020905b81548152906001019060200180831161065757829003601f168201915b5050505050905090565b6000610689826118f6565b6106c8576040517f08c379a00000000000000000000000000000000000000000000000000000000081526004016106bf90613737565b60405180910390fd5b6004600083815260200190815260200160002060009054906101000a900473ffffffffffffffffffffffffffffffffffffffff169050919050565b600061070e82610ccb565b90508073ffffffffffffffffffffffffffffffffffffffff168373ffffffffffffffffffffffffffffffffffffffff16141561077f576040517f08c379a0000000000000000000000000000000000000000000000000000000008152600401610776906137c9565b60405180910390fd5b8073ffffffffffffffffffffffffffffffffffffffff1661079e611962565b73ffffffffffffffffffffffffffffffffffffffff1614806107cd57506107cc816107c7611962565b61163c565b5b61080c576040517f08c379a00000000000000000000000000000000000000000000000000000000081526004016108039061385b565b60405180910390fd5b610816838361196a565b505050565b6000600880549050905090565b610839610833611962565b82611a23565b610878576040517f08c379a000000000000000000000000000000000000000000000000000000000815260040161086f906138ed565b60405180910390fd5b610883838383611b01565b505050565b600061089383610f9a565b82106108d4576040517f08c379a00000000000000000000000000000000000000000000000000000000081526004016108cb9061397f565b60405180910390fd5b600660008473ffffffffffffffffffffffffffffffffffffffff1673ffffffffffffffffffffffffffffffffffffffff168152602001908152602001600020600083815260200190815260200160002054905092915050565b610937600b6117de565b81600001818152505033816020019073ffffffffffffffffffffffffffffffffffffffff16908173ffffffffffffffffffffffffffffffffffffffff168152505080600c6000610987600b6117de565b81526020019081526020016000206000820151816000015560208201518160010160006101000a81548173ffffffffffffffffffffffffffffffffffffffff021916908373ffffffffffffffffffffffffffffffffffffffff1602179055506040820151816002019080519060200190610a02929190612aff565b506060820151816003019080519060200190610a1f929190612aff565b506080820151816004019080519060200190610a3c929190612aff565b5060a0820151816005015560c0820151816006015560e082015181600701556101008201518160080160006101000a81548173ffffffffffffffffffffffffffffffffffffffff021916908373ffffffffffffffffffffffffffffffffffffffff160217905550905050610ab933610ab4600b6117de565b611d68565b610ac3600b6117c8565b50565b610ae183838360405180602001604052806000815250611533565b505050565b6000610af061081b565b8210610b31576040517f08c379a0000000000000000000000000000000000000000000000000000000008152600401610b2890613a11565b60405180910390fd5b60088281548110610b4557610b44613a31565b5b90600052602060002001549050919050565b3373ffffffffffffffffffffffffffffffffffffffff16610b7782610ccb565b73ffffffffffffffffffffffffffffffffffffffff161415610bce576040517f08c379a0000000000000000000000000000000000000000000000000000000008152600401610bc590613ad2565b60405180910390fd5b600073ffffffffffffffffffffffffffffffffffffffff16600c600083815260200190815260200160002060080160009054906101000a900473ffffffffffffffffffffffffffffffffffffffff1673ffffffffffffffffffffffffffffffffffffffff1614610c73576040517f08c379a0000000000000000000000000000000000000000000000000000000008152600401610c6a90613b64565b60405180910390fd5b33600c600083815260200190815260200160002060080160006101000a81548173ffffffffffffffffffffffffffffffffffffffff021916908373ffffffffffffffffffffffffffffffffffffffff16021790555050565b6000806002600084815260200190815260200160002060009054906101000a900473ffffffffffffffffffffffffffffffffffffffff169050600073ffffffffffffffffffffffffffffffffffffffff168173ffffffffffffffffffffffffffffffffffffffff161415610d74576040517f08c379a0000000000000000000000000000000000000000000000000000000008152600401610d6b90613bf6565b60405180910390fd5b80915050919050565b3373ffffffffffffffffffffffffffffffffffffffff16610d9d82610ccb565b73ffffffffffffffffffffffffffffffffffffffff1614610df3576040517f08c379a0000000000000000000000000000000000000000000000000000000008152600401610dea90613c88565b60405180910390fd5b600073ffffffffffffffffffffffffffffffffffffffff16600c600083815260200190815260200160002060080160009054906101000a900473ffffffffffffffffffffffffffffffffffffffff1673ffffffffffffffffffffffffffffffffffffffff161415610e99576040517f08c379a0000000000000000000000000000000000000000000000000000000008152600401610e9090613d1a565b60405180910390fd5b610eda33600c600084815260200190815260200160002060080160009054906101000a900473ffffffffffffffffffffffffffffffffffffffff1683611b01565b610ee381611d86565b600c60008281526020019081526020016000206000808201600090556001820160006101000a81549073ffffffffffffffffffffffffffffffffffffffff0219169055600282016000610f369190612b85565b600382016000610f469190612b85565b600482016000610f569190612b85565b6005820160009055600682016000905560078201600090556008820160006101000a81549073ffffffffffffffffffffffffffffffffffffffff0219169055505050565b60008073ffffffffffffffffffffffffffffffffffffffff168273ffffffffffffffffffffffffffffffffffffffff16141561100b576040517f08c379a000000000000000000000000000000000000000000000000000000000815260040161100290613dac565b60405180910390fd5b600360008373ffffffffffffffffffffffffffffffffffffffff1673ffffffffffffffffffffffffffffffffffffffff168152602001908152602001600020549050919050565b61105a611962565b73ffffffffffffffffffffffffffffffffffffffff16611078611461565b73ffffffffffffffffffffffffffffffffffffffff16146110ce576040517f08c379a00000000000000000000000000000000000000000000000000000000081526004016110c590613e18565b60405180910390fd5b6110d86000611ea3565b565b606060006110e661081b565b67ffffffffffffffff8111156110ff576110fe612f91565b5b60405190808252806020026020018201604052801561113857816020015b611125612bc5565b81526020019060019003908161111d5790505b5090506000805b611149600b6117de565b811015611458576000600c600083815260200190815260200160002060000154111561144557600c600082815260200190815260200160002060405180610120016040529081600082015481526020016001820160009054906101000a900473ffffffffffffffffffffffffffffffffffffffff1673ffffffffffffffffffffffffffffffffffffffff1673ffffffffffffffffffffffffffffffffffffffff1681526020016002820180546111fe90613693565b80601f016020809104026020016040519081016040528092919081815260200182805461122a90613693565b80156112775780601f1061124c57610100808354040283529160200191611277565b820191906000526020600020905b81548152906001019060200180831161125a57829003601f168201915b5050505050815260200160038201805461129090613693565b80601f01602080910402602001604051908101604052809291908181526020018280546112bc90613693565b80156113095780601f106112de57610100808354040283529160200191611309565b820191906000526020600020905b8154815290600101906020018083116112ec57829003601f168201915b5050505050815260200160048201805461132290613693565b80601f016020809104026020016040519081016040528092919081815260200182805461134e90613693565b801561139b5780601f106113705761010080835404028352916020019161139b565b820191906000526020600020905b81548152906001019060200180831161137e57829003601f168201915b505050505081526020016005820154815260200160068201548152602001600782015481526020016008820160009054906101000a900473ffffffffffffffffffffffffffffffffffffffff1673ffffffffffffffffffffffffffffffffffffffff1673ffffffffffffffffffffffffffffffffffffffff168152505083838151811061142b5761142a613a31565b5b6020026020010181905250818061144190613e67565b9250505b808061145090613e67565b91505061113f565b50819250505090565b6000600a60009054906101000a900473ffffffffffffffffffffffffffffffffffffffff16905090565b60606001805461149a90613693565b80601f01602080910402602001604051908101604052809291908181526020018280546114c690613693565b80156115135780601f106114e857610100808354040283529160200191611513565b820191906000526020600020905b8154815290600101906020018083116114f657829003601f168201915b5050505050905090565b61152f611528611962565b8383611f69565b5050565b61154461153e611962565b83611a23565b611583576040517f08c379a000000000000000000000000000000000000000000000000000000000815260040161157a906138ed565b60405180910390fd5b61158f848484846120d6565b50505050565b60606115a0826118f6565b6115df576040517f08c379a00000000000000000000000000000000000000000000000000000000081526004016115d690613f22565b60405180910390fd5b60006115e9612132565b905060008151116116095760405180602001604052806000815250611634565b8061161384612149565b604051602001611624929190613f7e565b6040516020818303038152906040525b915050919050565b6000600560008473ffffffffffffffffffffffffffffffffffffffff1673ffffffffffffffffffffffffffffffffffffffff16815260200190815260200160002060008373ffffffffffffffffffffffffffffffffffffffff1673ffffffffffffffffffffffffffffffffffffffff16815260200190815260200160002060009054906101000a900460ff16905092915050565b6116d8611962565b73ffffffffffffffffffffffffffffffffffffffff166116f6611461565b73ffffffffffffffffffffffffffffffffffffffff161461174c576040517f08c379a000000000000000000000000000000000000000000000000000000000815260040161174390613e18565b60405180910390fd5b600073ffffffffffffffffffffffffffffffffffffffff168173ffffffffffffffffffffffffffffffffffffffff1614156117bc576040517f08c379a00000000000000000000000000000000000000000000000000000000081526004016117b390614014565b60405180910390fd5b6117c581611ea3565b50565b6001816000016000828254019250508190555050565b600081600001549050919050565b505050565b6000808273ffffffffffffffffffffffffffffffffffffffff163b119050919050565b60007f80ac58cd000000000000000000000000000000000000000000000000000000007bffffffffffffffffffffffffffffffffffffffffffffffffffffffff1916827bffffffffffffffffffffffffffffffffffffffffffffffffffffffff191614806118df57507f5b5e139f000000000000000000000000000000000000000000000000000000007bffffffffffffffffffffffffffffffffffffffffffffffffffffffff1916827bffffffffffffffffffffffffffffffffffffffffffffffffffffffff1916145b806118ef57506118ee826122aa565b5b9050919050565b60008073ffffffffffffffffffffffffffffffffffffffff166002600084815260200190815260200160002060009054906101000a900473ffffffffffffffffffffffffffffffffffffffff1673ffffffffffffffffffffffffffffffffffffffff1614159050919050565b600033905090565b816004600083815260200190815260200160002060006101000a81548173ffffffffffffffffffffffffffffffffffffffff021916908373ffffffffffffffffffffffffffffffffffffffff160217905550808273ffffffffffffffffffffffffffffffffffffffff166119dd83610ccb565b73ffffffffffffffffffffffffffffffffffffffff167f8c5be1e5ebec7d5bd14f71427d1e84f3dd0314c0f7b2291e5b200ac8c7c3b92560405160405180910390a45050565b6000611a2e826118f6565b611a6d576040517f08c379a0000000000000000000000000000000000000000000000000000000008152600401611a64906140a6565b60405180910390fd5b6000611a7883610ccb565b90508073ffffffffffffffffffffffffffffffffffffffff168473ffffffffffffffffffffffffffffffffffffffff161480611aba5750611ab9818561163c565b5b80611af857508373ffffffffffffffffffffffffffffffffffffffff16611ae08461067e565b73ffffffffffffffffffffffffffffffffffffffff16145b91505092915050565b8273ffffffffffffffffffffffffffffffffffffffff16611b2182610ccb565b73ffffffffffffffffffffffffffffffffffffffff1614611b77576040517f08c379a0000000000000000000000000000000000000000000000000000000008152600401611b6e90614138565b60405180910390fd5b600073ffffffffffffffffffffffffffffffffffffffff168273ffffffffffffffffffffffffffffffffffffffff161415611be7576040517f08c379a0000000000000000000000000000000000000000000000000000000008152600401611bde906141ca565b60405180910390fd5b611bf2838383612314565b611bfd60008261196a565b6001600360008573ffffffffffffffffffffffffffffffffffffffff1673ffffffffffffffffffffffffffffffffffffffff1681526020019081526020016000206000828254611c4d91906141ea565b925050819055506001600360008473ffffffffffffffffffffffffffffffffffffffff1673ffffffffffffffffffffffffffffffffffffffff1681526020019081526020016000206000828254611ca4919061421e565b92505081905550816002600083815260200190815260200160002060006101000a81548173ffffffffffffffffffffffffffffffffffffffff021916908373ffffffffffffffffffffffffffffffffffffffff160217905550808273ffffffffffffffffffffffffffffffffffffffff168473ffffffffffffffffffffffffffffffffffffffff167fddf252ad1be2c89b69c2b068fc378daa952ba7f163c4a11628f55a4df523b3ef60405160405180910390a4611d63838383612428565b505050565b611d8282826040518060200160405280600081525061242d565b5050565b6000611d9182610ccb565b9050611d9f81600084612314565b611daa60008361196a565b6001600360008373ffffffffffffffffffffffffffffffffffffffff1673ffffffffffffffffffffffffffffffffffffffff1681526020019081526020016000206000828254611dfa91906141ea565b925050819055506002600083815260200190815260200160002060006101000a81549073ffffffffffffffffffffffffffffffffffffffff021916905581600073ffffffffffffffffffffffffffffffffffffffff168273ffffffffffffffffffffffffffffffffffffffff167fddf252ad1be2c89b69c2b068fc378daa952ba7f163c4a11628f55a4df523b3ef60405160405180910390a4611e9f81600084612428565b5050565b6000600a60009054906101000a900473ffffffffffffffffffffffffffffffffffffffff16905081600a60006101000a81548173ffffffffffffffffffffffffffffffffffffffff021916908373ffffffffffffffffffffffffffffffffffffffff1602179055508173ffffffffffffffffffffffffffffffffffffffff168173ffffffffffffffffffffffffffffffffffffffff167f8be0079c531659141344cd1fd0a4f28419497f9722a3daafe3b4186f6b6457e060405160405180910390a35050565b8173ffffffffffffffffffffffffffffffffffffffff168373ffffffffffffffffffffffffffffffffffffffff161415611fd8576040517f08c379a0000000000000000000000000000000000000000000000000000000008152600401611fcf906142c0565b60405180910390fd5b80600560008573ffffffffffffffffffffffffffffffffffffffff1673ffffffffffffffffffffffffffffffffffffffff16815260200190815260200160002060008473ffffffffffffffffffffffffffffffffffffffff1673ffffffffffffffffffffffffffffffffffffffff16815260200190815260200160002060006101000a81548160ff0219169083151502179055508173ffffffffffffffffffffffffffffffffffffffff168373ffffffffffffffffffffffffffffffffffffffff167f17307eab39ab6107e8899845ad3d59bd9653f200f220920489ca2b5937696c31836040516120c99190612d0e565b60405180910390a3505050565b6120e1848484611b01565b6120ed84848484612488565b61212c576040517f08c379a000000000000000000000000000000000000000000000000000000000815260040161212390614352565b60405180910390fd5b50505050565b606060405180602001604052806000815250905090565b60606000821415612191576040518060400160405280600181526020017f300000000000000000000000000000000000000000000000000000000000000081525090506122a5565b600082905060005b600082146121c35780806121ac90613e67565b915050600a826121bc91906143a1565b9150612199565b60008167ffffffffffffffff8111156121df576121de612f91565b5b6040519080825280601f01601f1916602001820160405280156122115781602001600182028036833780820191505090505b5090505b6000851461229e5760018261222a91906141ea565b9150600a8561223991906143d2565b6030612245919061421e565b60f81b81838151811061225b5761225a613a31565b5b60200101907effffffffffffffffffffffffffffffffffffffffffffffffffffffffffffff1916908160001a905350600a8561229791906143a1565b9450612215565b8093505050505b919050565b60007f01ffc9a7000000000000000000000000000000000000000000000000000000007bffffffffffffffffffffffffffffffffffffffffffffffffffffffff1916827bffffffffffffffffffffffffffffffffffffffffffffffffffffffff1916149050919050565b61231f8383836117ec565b600073ffffffffffffffffffffffffffffffffffffffff168373ffffffffffffffffffffffffffffffffffffffff1614156123625761235d8161261f565b6123a1565b8173ffffffffffffffffffffffffffffffffffffffff168373ffffffffffffffffffffffffffffffffffffffff16146123a05761239f8382612668565b5b5b600073ffffffffffffffffffffffffffffffffffffffff168273ffffffffffffffffffffffffffffffffffffffff1614156123e4576123df816127d5565b612423565b8273ffffffffffffffffffffffffffffffffffffffff168273ffffffffffffffffffffffffffffffffffffffff16146124225761242182826128a6565b5b5b505050565b505050565b6124378383612925565b6124446000848484612488565b612483576040517f08c379a000000000000000000000000000000000000000000000000000000000815260040161247a90614352565b60405180910390fd5b505050565b60006124a98473ffffffffffffffffffffffffffffffffffffffff166117f1565b15612612578373ffffffffffffffffffffffffffffffffffffffff1663150b7a026124d2611962565b8786866040518563ffffffff1660e01b81526004016124f49493929190614458565b602060405180830381600087803b15801561250e57600080fd5b505af192505050801561253f57506040513d601f19601f8201168201806040525081019061253c91906144b9565b60015b6125c2573d806000811461256f576040519150601f19603f3d011682016040523d82523d6000602084013e612574565b606091505b506000815114156125ba576040517f08c379a00000000000000000000000000000000000000000000000000000000081526004016125b190614352565b60405180910390fd5b805181602001fd5b63150b7a0260e01b7bffffffffffffffffffffffffffffffffffffffffffffffffffffffff1916817bffffffffffffffffffffffffffffffffffffffffffffffffffffffff191614915050612617565b600190505b949350505050565b6008805490506009600083815260200190815260200160002081905550600881908060018154018082558091505060019003906000526020600020016000909190919091505550565b6000600161267584610f9a565b61267f91906141ea565b9050600060076000848152602001908152602001600020549050818114612764576000600660008673ffffffffffffffffffffffffffffffffffffffff1673ffffffffffffffffffffffffffffffffffffffff168152602001908152602001600020600084815260200190815260200160002054905080600660008773ffffffffffffffffffffffffffffffffffffffff1673ffffffffffffffffffffffffffffffffffffffff168152602001908152602001600020600084815260200190815260200160002081905550816007600083815260200190815260200160002081905550505b6007600084815260200190815260200160002060009055600660008573ffffffffffffffffffffffffffffffffffffffff1673ffffffffffffffffffffffffffffffffffffffff16815260200190815260200160002060008381526020019081526020016000206000905550505050565b600060016008805490506127e991906141ea565b905060006009600084815260200190815260200160002054905060006008838154811061281957612818613a31565b5b90600052602060002001549050806008838154811061283b5761283a613a31565b5b90600052602060002001819055508160096000838152602001908152602001600020819055506009600085815260200190815260200160002060009055600880548061288a576128896144e6565b5b6001900381819060005260206000200160009055905550505050565b60006128b183610f9a565b905081600660008573ffffffffffffffffffffffffffffffffffffffff1673ffffffffffffffffffffffffffffffffffffffff168152602001908152602001600020600083815260200190815260200160002081905550806007600084815260200190815260200160002081905550505050565b600073ffffffffffffffffffffffffffffffffffffffff168273ffffffffffffffffffffffffffffffffffffffff161415612995576040517f08c379a000000000000000000000000000000000000000000000000000000000815260040161298c90614561565b60405180910390fd5b61299e816118f6565b156129de576040517f08c379a00000000000000000000000000000000000000000000000000000000081526004016129d5906145cd565b60405180910390fd5b6129ea60008383612314565b6001600360008473ffffffffffffffffffffffffffffffffffffffff1673ffffffffffffffffffffffffffffffffffffffff1681526020019081526020016000206000828254612a3a919061421e565b92505081905550816002600083815260200190815260200160002060006101000a81548173ffffffffffffffffffffffffffffffffffffffff021916908373ffffffffffffffffffffffffffffffffffffffff160217905550808273ffffffffffffffffffffffffffffffffffffffff16600073ffffffffffffffffffffffffffffffffffffffff167fddf252ad1be2c89b69c2b068fc378daa952ba7f163c4a11628f55a4df523b3ef60405160405180910390a4612afb60008383612428565b5050565b828054612b0b90613693565b90600052602060002090601f016020900481019282612b2d5760008555612b74565b82601f10612b4657805160ff1916838001178555612b74565b82800160010185558215612b74579182015b82811115612b73578251825591602001919060010190612b58565b5b509050612b819190612c3d565b5090565b508054612b9190613693565b6000825580601f10612ba35750612bc2565b601f016020900490600052602060002090810190612bc19190612c3d565b5b50565b60405180610120016040528060008152602001600073ffffffffffffffffffffffffffffffffffffffff168152602001606081526020016060815260200160608152602001600081526020016000815260200160008152602001600073ffffffffffffffffffffffffffffffffffffffff1681525090565b5b80821115612c56576000816000905550600101612c3e565b5090565b6000604051905090565b600080fd5b600080fd5b60007fffffffff0000000000000000000000000000000000000000000000000000000082169050919050565b612ca381612c6e565b8114612cae57600080fd5b50565b600081359050612cc081612c9a565b92915050565b600060208284031215612cdc57612cdb612c64565b5b6000612cea84828501612cb1565b91505092915050565b60008115159050919050565b612d0881612cf3565b82525050565b6000602082019050612d236000830184612cff565b92915050565b600081519050919050565b600082825260208201905092915050565b60005b83811015612d63578082015181840152602081019050612d48565b83811115612d72576000848401525b50505050565b6000601f19601f8301169050919050565b6000612d9482612d29565b612d9e8185612d34565b9350612dae818560208601612d45565b612db781612d78565b840191505092915050565b60006020820190508181036000830152612ddc8184612d89565b905092915050565b6000819050919050565b612df781612de4565b8114612e0257600080fd5b50565b600081359050612e1481612dee565b92915050565b600060208284031215612e3057612e2f612c64565b5b6000612e3e84828501612e05565b91505092915050565b600073ffffffffffffffffffffffffffffffffffffffff82169050919050565b6000612e7282612e47565b9050919050565b612e8281612e67565b82525050565b6000602082019050612e9d6000830184612e79565b92915050565b612eac81612e67565b8114612eb757600080fd5b50565b600081359050612ec981612ea3565b92915050565b60008060408385031215612ee657612ee5612c64565b5b6000612ef485828601612eba565b9250506020612f0585828601612e05565b9150509250929050565b612f1881612de4565b82525050565b6000602082019050612f336000830184612f0f565b92915050565b600080600060608486031215612f5257612f51612c64565b5b6000612f6086828701612eba565b9350506020612f7186828701612eba565b9250506040612f8286828701612e05565b9150509250925092565b600080fd5b7f4e487b7100000000000000000000000000000000000000000000000000000000600052604160045260246000fd5b612fc982612d78565b810181811067ffffffffffffffff82111715612fe857612fe7612f91565b5b80604052505050565b6000612ffb612c5a565b90506130078282612fc0565b919050565b600080fd5b600080fd5b600080fd5b600067ffffffffffffffff82111561303657613035612f91565b5b61303f82612d78565b9050602081019050919050565b82818337600083830152505050565b600061306e6130698461301b565b612ff1565b90508281526020810184848401111561308a57613089613016565b5b61309584828561304c565b509392505050565b600082601f8301126130b2576130b1613011565b5b81356130c284826020860161305b565b91505092915050565b600061012082840312156130e2576130e1612f8c565b5b6130ed610120612ff1565b905060006130fd84828501612e05565b600083015250602061311184828501612eba565b602083015250604082013567ffffffffffffffff8111156131355761313461300c565b5b6131418482850161309d565b604083015250606082013567ffffffffffffffff8111156131655761316461300c565b5b6131718482850161309d565b606083015250608082013567ffffffffffffffff8111156131955761319461300c565b5b6131a18482850161309d565b60808301525060a06131b584828501612e05565b60a08301525060c06131c984828501612e05565b60c08301525060e06131dd84828501612e05565b60e0830152506101006131f284828501612eba565b6101008301525092915050565b60006020828403121561321557613214612c64565b5b600082013567ffffffffffffffff81111561323357613232612c69565b5b61323f848285016130cb565b91505092915050565b60006020828403121561325e5761325d612c64565b5b600061326c84828501612eba565b91505092915050565b600081519050919050565b600082825260208201905092915050565b6000819050602082019050919050565b6132aa81612de4565b82525050565b6132b981612e67565b82525050565b600082825260208201905092915050565b60006132db82612d29565b6132e581856132bf565b93506132f5818560208601612d45565b6132fe81612d78565b840191505092915050565b60006101208301600083015161332260008601826132a1565b50602083015161333560208601826132b0565b506040830151848203604086015261334d82826132d0565b9150506060830151848203606086015261336782826132d0565b9150506080830151848203608086015261338182826132d0565b91505060a083015161339660a08601826132a1565b5060c08301516133a960c08601826132a1565b5060e08301516133bc60e08601826132a1565b506101008301516133d16101008601826132b0565b508091505092915050565b60006133e88383613309565b905092915050565b6000602082019050919050565b600061340882613275565b6134128185613280565b93508360208202850161342485613291565b8060005b85811015613460578484038952815161344185826133dc565b945061344c836133f0565b925060208a01995050600181019050613428565b50829750879550505050505092915050565b6000602082019050818103600083015261348c81846133fd565b905092915050565b61349d81612cf3565b81146134a857600080fd5b50565b6000813590506134ba81613494565b92915050565b600080604083850312156134d7576134d6612c64565b5b60006134e585828601612eba565b92505060206134f6858286016134ab565b9150509250929050565b600067ffffffffffffffff82111561351b5761351a612f91565b5b61352482612d78565b9050602081019050919050565b600061354461353f84613500565b612ff1565b9050828152602081018484840111156135605761355f613016565b5b61356b84828561304c565b509392505050565b600082601f83011261358857613587613011565b5b8135613598848260208601613531565b91505092915050565b600080600080608085870312156135bb576135ba612c64565b5b60006135c987828801612eba565b94505060206135da87828801612eba565b93505060406135eb87828801612e05565b925050606085013567ffffffffffffffff81111561360c5761360b612c69565b5b61361887828801613573565b91505092959194509250565b6000806040838503121561363b5761363a612c64565b5b600061364985828601612eba565b925050602061365a85828601612eba565b9150509250929050565b7f4e487b7100000000000000000000000000000000000000000000000000000000600052602260045260246000fd5b600060028204905060018216806136ab57607f821691505b602082108114156136bf576136be613664565b5b50919050565b7f4552433732313a20617070726f76656420717565727920666f72206e6f6e657860008201527f697374656e7420746f6b656e0000000000000000000000000000000000000000602082015250565b6000613721602c83612d34565b915061372c826136c5565b604082019050919050565b6000602082019050818103600083015261375081613714565b9050919050565b7f4552433732313a20617070726f76616c20746f2063757272656e74206f776e6560008201527f7200000000000000000000000000000000000000000000000000000000000000602082015250565b60006137b3602183612d34565b91506137be82613757565b604082019050919050565b600060208201905081810360008301526137e2816137a6565b9050919050565b7f4552433732313a20617070726f76652063616c6c6572206973206e6f74206f7760008201527f6e6572206e6f7220617070726f76656420666f7220616c6c0000000000000000602082015250565b6000613845603883612d34565b9150613850826137e9565b604082019050919050565b6000602082019050818103600083015261387481613838565b9050919050565b7f4552433732313a207472616e736665722063616c6c6572206973206e6f74206f60008201527f776e6572206e6f7220617070726f766564000000000000000000000000000000602082015250565b60006138d7603183612d34565b91506138e28261387b565b604082019050919050565b60006020820190508181036000830152613906816138ca565b9050919050565b7f455243373231456e756d657261626c653a206f776e657220696e646578206f7560008201527f74206f6620626f756e6473000000000000000000000000000000000000000000602082015250565b6000613969602b83612d34565b91506139748261390d565b604082019050919050565b600060208201905081810360008301526139988161395c565b9050919050565b7f455243373231456e756d657261626c653a20676c6f62616c20696e646578206f60008201527f7574206f6620626f756e64730000000000000000000000000000000000000000602082015250565b60006139fb602c83612d34565b9150613a068261399f565b604082019050919050565b60006020820190508181036000830152613a2a816139ee565b9050919050565b7f4e487b7100000000000000000000000000000000000000000000000000000000600052603260045260246000fd5b7f596f752063616e6e6f742070757263686173652074686973206f7074696f6e2c60008201527f20796f752061726520746865206f776e65722e00000000000000000000000000602082015250565b6000613abc603383612d34565b9150613ac782613a60565b604082019050919050565b60006020820190508181036000830152613aeb81613aaf565b9050919050565b7f596f752063616e6e6f742070757263686173652061206f7074696f6e20616c7260008201527f65616479207075726368617365642e0000000000000000000000000000000000602082015250565b6000613b4e602f83612d34565b9150613b5982613af2565b604082019050919050565b60006020820190508181036000830152613b7d81613b41565b9050919050565b7f4552433732313a206f776e657220717565727920666f72206e6f6e657869737460008201527f656e7420746f6b656e0000000000000000000000000000000000000000000000602082015250565b6000613be0602983612d34565b9150613beb82613b84565b604082019050919050565b60006020820190508181036000830152613c0f81613bd3565b9050919050565b7f596f752063616e6e6f7420657865637574652074686973206f7074696f6e2c2060008201527f796f7520617265206e6f7420746865206f776e65722e00000000000000000000602082015250565b6000613c72603683612d34565b9150613c7d82613c16565b604082019050919050565b60006020820190508181036000830152613ca181613c65565b9050919050565b7f596f752063616e6e6f7420657865637574652074686973206f7074696f6e2c2060008201527f6e6f207075726368617365722e00000000000000000000000000000000000000602082015250565b6000613d04602d83612d34565b9150613d0f82613ca8565b604082019050919050565b60006020820190508181036000830152613d3381613cf7565b9050919050565b7f4552433732313a2062616c616e636520717565727920666f7220746865207a6560008201527f726f206164647265737300000000000000000000000000000000000000000000602082015250565b6000613d96602a83612d34565b9150613da182613d3a565b604082019050919050565b60006020820190508181036000830152613dc581613d89565b9050919050565b7f4f776e61626c653a2063616c6c6572206973206e6f7420746865206f776e6572600082015250565b6000613e02602083612d34565b9150613e0d82613dcc565b602082019050919050565b60006020820190508181036000830152613e3181613df5565b9050919050565b7f4e487b7100000000000000000000000000000000000000000000000000000000600052601160045260246000fd5b6000613e7282612de4565b91507fffffffffffffffffffffffffffffffffffffffffffffffffffffffffffffffff821415613ea557613ea4613e38565b5b600182019050919050565b7f4552433732314d657461646174613a2055524920717565727920666f72206e6f60008201527f6e6578697374656e7420746f6b656e0000000000000000000000000000000000602082015250565b6000613f0c602f83612d34565b9150613f1782613eb0565b604082019050919050565b60006020820190508181036000830152613f3b81613eff565b9050919050565b600081905092915050565b6000613f5882612d29565b613f628185613f42565b9350613f72818560208601612d45565b80840191505092915050565b6000613f8a8285613f4d565b9150613f968284613f4d565b91508190509392505050565b7f4f776e61626c653a206e6577206f776e657220697320746865207a65726f206160008201527f6464726573730000000000000000000000000000000000000000000000000000602082015250565b6000613ffe602683612d34565b915061400982613fa2565b604082019050919050565b6000602082019050818103600083015261402d81613ff1565b9050919050565b7f4552433732313a206f70657261746f7220717565727920666f72206e6f6e657860008201527f697374656e7420746f6b656e0000000000000000000000000000000000000000602082015250565b6000614090602c83612d34565b915061409b82614034565b604082019050919050565b600060208201905081810360008301526140bf81614083565b9050919050565b7f4552433732313a207472616e736665722066726f6d20696e636f72726563742060008201527f6f776e6572000000000000000000000000000000000000000000000000000000602082015250565b6000614122602583612d34565b915061412d826140c6565b604082019050919050565b6000602082019050818103600083015261415181614115565b9050919050565b7f4552433732313a207472616e7366657220746f20746865207a65726f2061646460008201527f7265737300000000000000000000000000000000000000000000000000000000602082015250565b60006141b4602483612d34565b91506141bf82614158565b604082019050919050565b600060208201905081810360008301526141e3816141a7565b9050919050565b60006141f582612de4565b915061420083612de4565b92508282101561421357614212613e38565b5b828203905092915050565b600061422982612de4565b915061423483612de4565b9250827fffffffffffffffffffffffffffffffffffffffffffffffffffffffffffffffff0382111561426957614268613e38565b5b828201905092915050565b7f4552433732313a20617070726f766520746f2063616c6c657200000000000000600082015250565b60006142aa601983612d34565b91506142b582614274565b602082019050919050565b600060208201905081810360008301526142d98161429d565b9050919050565b7f4552433732313a207472616e7366657220746f206e6f6e20455243373231526560008201527f63656976657220696d706c656d656e7465720000000000000000000000000000602082015250565b600061433c603283612d34565b9150614347826142e0565b604082019050919050565b6000602082019050818103600083015261436b8161432f565b9050919050565b7f4e487b7100000000000000000000000000000000000000000000000000000000600052601260045260246000fd5b60006143ac82612de4565b91506143b783612de4565b9250826143c7576143c6614372565b5b828204905092915050565b60006143dd82612de4565b91506143e883612de4565b9250826143f8576143f7614372565b5b828206905092915050565b600081519050919050565b600082825260208201905092915050565b600061442a82614403565b614434818561440e565b9350614444818560208601612d45565b61444d81612d78565b840191505092915050565b600060808201905061446d6000830187612e79565b61447a6020830186612e79565b6144876040830185612f0f565b8181036060830152614499818461441f565b905095945050505050565b6000815190506144b381612c9a565b92915050565b6000602082840312156144cf576144ce612c64565b5b60006144dd848285016144a4565b91505092915050565b7f4e487b7100000000000000000000000000000000000000000000000000000000600052603160045260246000fd5b7f4552433732313a206d696e7420746f20746865207a65726f2061646472657373600082015250565b600061454b602083612d34565b915061455682614515565b602082019050919050565b6000602082019050818103600083015261457a8161453e565b9050919050565b7f4552433732313a20746f6b656e20616c7265616479206d696e74656400000000600082015250565b60006145b7601c83612d34565b91506145c282614581565b602082019050919050565b600060208201905081810360008301526145e6816145aa565b905091905056fea2646970667358221220ce759d18e797b131d3eb00f7e8def8c06a17e35e73c2ae5ccdc1f7828086bbc864736f6c6343000809003368747470733a2f2f7374617469632e77696b69612e6e6f636f6f6b69652e6e65742f6d617276656c63696e656d61746963756e6976657273652f696d616765732f622f62362f416d617a696e675f5370696465722d4d616e5f2d5f50726f66696c655f5069632e706e6768747470733a2f2f746573746e6574732e6f70656e7365612e696f2f6173736574732f72696e6b6562792f3078333838463438366442634265303530323962413761644637383434353942353830623432373033322f3132",
  "linkReferences": {},
  "deployedLinkReferences": {}
}